:020000040800F2
:1000000018040020C10100088D0B0008850B0008B2
:10001000890B0008A9020008590C00080000000024
:10002000000000000000000000000000910B00082C
:10003000AD020008000000008F0B0008930B0008C1
:10004000DB010008DB010008DB010008DB01000820
:10005000DB010008DB010008DB010008DB01000810
:10006000DB010008DB010008DB010008DB01000800
:10007000DB010008DB010008DB010008DB010008F0
:10008000DB010008DB010008DB010008DB010008E0
:10009000DB010008DB010008DB010008DB010008D0
:1000A000DB010008DB010008DB010008DB010008C0
:1000B000DB010008DB010008DB010008DB010008B0
:1000C000DB010008DB010008DB010008DB010008A0
:1000D000DB010008DB010008DB010008DB01000890
:1000E000DB010008DB010008DB010008DB01000880
:1000F000DB010008DB010008DB010008DB01000870
:10010000DB010008DB010008DB010008DB0100085F
:10011000DB010008DB010008DB010008DB0100084F
:10012000DB010008DB010008DB010008DB0100083F
:10013000DB010008DB010008DB010008DB0100082F
:10014000DB010008DB010008DB010008DB0100081F
:10015000DB010008DB010008DB010008DB0100080F
:10016000DB010008DB010008DB010008DB010008FF
:10017000DB010008DB010008DB01000800000000D3
:10018000DB010008DB010008DB010008DB010008DF
:10019000DB010008DB010008DB010008DB010008CF
:1001A000DB010008DB010008DB010008DFF80CD0F0
:1001B00000F068F800480047B30C0008180400205D
:1001C0000648804706480047FEE7FEE7FEE7FEE7F1
:1001D000FEE7FEE7FEE7FEE7FEE7FEE7450C000868
:1001E000AD0100082DE9F05F0546002092469B46D0
:1001F00088460646814640241BE02846414647463D
:10020000224600F02FF853465A46C01A914110D3A7
:1002100011461846224600F016F82D1A67EB010821
:100220004F4622460120002100F00DF817EB00098F
:100230004E41201EA4F10104DFDC484631462A4627
:100240004346BDE8F09F202A04DB203A00FA02F181
:10025000002070479140C2F1200320FA03F31943B4
:1002600090407047202A04DB203A21FA02F0002156
:10027000704721FA02F3D040C2F1200291400843B6
:1002800019467047064C074D06E0E06840F0010350
:1002900094E8070098471034AC42F6D3FFF78AFF82
:1002A000D80C0008F80C000800BFFEE770470000FB
:1002B00010B5044600204FF0E021086100EE104A1E
:1002C000B8EE400AF2EE000A80EE201A034880EDF4
:1002D000001A002000F028FC10BD000010000020D3
:1002E00001480068704700000400002003480068CF
:1002F0000349097808440149086070470400002058
:100300000C00002070B504460E4800784FF47A7156
:10031000B1FBF0F00C490968B1FBF0F5284600F09C
:1003200017FC08B1012070BD102C07D20022214615
:10033000501E00F00DF80548046001E00120F2E7CE
:100340000020F0E70C000020000000200800002042
:100350002DE9F05F80460D461646002700F07EFC32
:10036000074639462A46334601F00700C0F1070A1E
:10037000BAF1040F02D94FF0040A01E0C0F1070AF4
:10038000D14600F1040ABAF1070F02D24FF0000A79
:1003900001E0A0F1030AD4464FF0010A0AFA09FA73
:1003A000AAF1010A0AEA020A0AFA0CFA4FF0010B52
:1003B0000BFA0CFBABF1010B0BEA030B4AEA0B0443
:1003C0002146404600F052FCBDE8F09F38B50024BD
:1003D00000BF002000901D48006840F080501B497D
:1003E00008600846006800F08050009000BF00BF21
:1003F000012017490864FFF773FF044607E0FFF781
:100400006FFF001BB0F57A7F01D9032038BD11487A
:10041000406800F48030B0F5803FF0D101200C49F5
:100420004864FFF75DFF044607E0FFF759FF001B34
:10043000B0F57A7F01D90320E8E70648406800F468
:100440000030B0F5003FF0D10020DFE74038024037
:1004500000000E420070004070B504460D460CB915
:10046000012070BD5848006800F00F00A84209D272
:1004700055490D700846006800F00F00A84201D0F1
:100480000120EEE7207800F0020002281DD120783C
:1004900000F00400042805D14C48006840F4E05006
:1004A0004A490860207800F00800082805D147482C
:1004B000006840F46040454908604448006820F006
:1004C000F000A168084341490860207800F001006D
:1004D000A8B36068012807D13C4808380068C0F319
:1004E0004040B8B90120BCE76068022802D06068CB
:1004F000032807D1354808380068C0F3406048B980
:100500000120AEE7314808380068C0F3400008B960
:100510000120A6E72D48006820F003006168084329
:100520002A490860FFF7DCFE064609E0FFF7D8FE1F
:10053000801B41F28831884202D9032091E707E00D
:100540002248006800F00C006168B0EB810FEDD12B
:100550001D48006800F00F00A84209D91A490D7023
:100560000846006800F00F00A84201D0012078E79B
:10057000207800F00400042807D11448006820F413
:10058000E050E168084311490860207800F0080055
:10059000082808D10D48006820F46040216940EA2D
:1005A000C1000A49086000F019F808490968C1F358
:1005B0000311074A515CC8400649086006480068B4
:1005C000FFF7A0FE00204CE7003C02400838024044
:1005D000C00C000800000020080000202DE9F047B2
:1005E000002400250026A1462548006800F00C00E4
:1005F00020B1042805D008283AD105E0DFF884901E
:1006000039E0DFF8849036E01D48001F006800F0F4
:100610003F041B48001F006800F4800078B11A48AE
:100620001749091F0968C1F38811A0FB0170014631
:10063000224600233846FFF7D5FD05460EE0114857
:100640000F49091F0968C1F38811A0FB0170014619
:10065000224600233846FFF7C5FD05460848001F1F
:100660000068C0F30140401C4600B5FBF6F902E00B
:10067000DFF8109000BF00BF4846BDE8F0870000DB
:10068000083802400024F40040787D01F8B50446A3
:100690000CB90120F8BD207800F00100002874D0CA
:1006A000F948006800F00C0004280DD0F6480068F6
:1006B00000F00C00082813D1F348001F006800F474
:1006C0008000B0F5800F0BD1EF4808380068C0F308
:1006D0004040002859D06068002856D10120D9E751
:1006E00000BF6068B0F5803F08D1E748083800686F
:1006F00040F48030E449083908601EE06068B0F5D5
:10070000A02F0DD1E0480838006840F48020DE4971
:10071000083908600846006840F4803008600CE042
:10072000D9480838006820F48030D7490839086073
:100730000846006820F48020086000BF606890B11F
:10074000FFF7CEFD054606E0FFF7CAFD401B642813
:1007500001D903209EE7CC4808380068C0F3404028
:100760000028F1D011E0FFF7BBFD054606E0FFF7DA
:10077000B7FD401B642801D903208BE7C248083825
:100780000068C0F340400028F1D1207800F002005A
:1007900002285FD1BC48006800F00C0058B1BA488C
:1007A000006800F00C0008281CD1B748001F006842
:1007B00000F48000B0B9B44808380068C0F34000C5
:1007C00020B1E068012801D0012063E7AE48083875
:1007D000006820F0F800216940EAC100AA49083900
:1007E000086037E0E06800B30120A8490860FFF71F
:1007F00077FD054606E0FFF773FD401B022801D98F
:10080000032047E7A04808380068C0F340000028EC
:10081000F1D09D480838006820F0F800216940EACE
:10082000C10099490839086014E000209749086020
:10083000FFF756FD054606E0FFF752FD401B022874
:1008400001D9032026E7904808380068C0F340002B
:100850000028F1D1207800F0080008282CD1606928
:10086000A8B101208A490860FFF73AFD054606E075
:10087000FFF736FD401B022801D903200AE7824812
:100880006C300068C0F340000028F1D014E0002074
:100890007F490860FFF724FD054606E0FFF720FDCD
:1008A000401B022801D90320F4E677486C30006829
:1008B000C0F340000028F1D1207800F004000428A3
:1008C00070D1002770483830006800F0805090B92F
:1008D00000BF002000906C483830006840F0805025
:1008E0006949383108600846006800F0805000907F
:1008F00000BF00BF01276748006800F48070B0B9EE
:100900006448006840F4807062490860FFF7E8FCC2
:10091000054606E0FFF7E4FC401B022801D903204E
:10092000B8E65C48006800F480700028F2D000BF90
:10093000A068012808D154486830006840F00100E0
:100940005149683108601DE0A06805280DD14E4866
:100950006830006840F004004B4968310860084680
:10096000006840F0010008600CE04748683000680B
:1009700020F001004449683108600846006820F012
:100980000400086000BFA068A8B1FFF7A9FC0546F5
:1009900009E0FFF7A5FC401B41F28831884202D9EB
:1009A000032077E626E0384868300068C0F340004E
:1009B0000028EED013E0FFF793FC054608E0FFF7B0
:1009C0008FFC401B41F28831884201D9032061E647
:1009D0002D4868300068C0F340000028EFD1012F97
:1009E00007D129483830006820F080502649383136
:1009F000086000BFA069002845D02348006800F0C7
:100A00000C0008285DD0A069022845D100201F49AC
:100A10000866FFF765FC054606E0FFF761FC401B32
:100A2000022801D9032035E6174808380068C0F3CA
:100A300040600028F1D1D4E907010843616A40EA27
:100A400081110122A06AC2EB500041EA00412C2032
:100A5000005D41EA00600C49091F086001200B4954
:100A60000866FFF73DFC054606E0FFF739FC401B32
:100A7000022801D903200DE6034808380068C0F3B6
:100A800040600028F1D049E00838024000004742A9
:100A9000800E474200700040002021490866FFF7A1
:100AA0001FFC054606E0FFF71BFC401B022801D98E
:100AB0000320EFE51B480068C0F340600028F2D136
:100AC0002CE0A069012800D1E4E51648001D066865
:100AD000A069012820D006F48001E06981421BD181
:100AE00006F03F01206A814216D147F6C0703040BF
:100AF000616AB0EB811F0FD106F440310122A06A78
:100B0000C2EB5000B1EB004F06D106F070612C2013
:100B1000005DB1EB006F01D00120BBE50020B9E51D
:100B20000000474200380240042808D14FF0E0217D
:100B3000096941F004014FF0E022116107E04FF034
:100B4000E021096921F004014FF0E02211617047B2
:100B500070B504462546681EB0F1807F01D30120A0
:100B60000FE0681E4FF0E02148610F214FF0FF3089
:100B700000F07CF800204FF0E02188610720086138
:100B8000002070BD00BFFEE700BFFEE77047704762
:100B9000704710B5FFF7AAFB10BD000000B593B079
:100BA00000BF002001902548006840F08050234994
:100BB00008600846006800F08050019000BF00BF48
:100BC00000BF002001901E48006840F440401C49CE
:100BD00008600846006800F44040019000BF00BF74
:100BE0000120029000040390022008904105099121
:100BF0000F210A91D8210B9102210C9108210D910E
:100C000002A8FFF743FD08B100BFFEE7FFF7DEFBD8
:100C10000F200E9002200F90002010904FF4A05053
:100C200011904FF48050129005210EA8FFF714FC8C
:100C300008B100BFFEE713B000BD0000403802401D
:100C4000007000400348006840F4700001490860EB
:100C50007047000088ED00E000BFFEE70248006832
:100C6000C0F30220704700000CED00E010B5002832
:100C700004DB0A07130E054A135406E00A07140E94
:100C8000034A00F00F031B1FD45410BD00E400E022
:100C900018ED00E002E008C8121F08C1002AFAD1CE
:100CA00070477047002001E001C1121F002AFBD1EC
:100CB0007047FFF773FFB420FFF7FAFA00BFFEE7B3
:100CC00000000000000000000102030406070809FC
:100CD0000000000001020304F80C000800000020DE
:100CE00014000000940C00080C0D000814000020F3
:100CF00004040000A40C00080024F400000000001C
:0C0D0000100000000100000000000000D6
:04000005080001AD41
:00000001FF
